{
  "contractName": "NDFMkr",
  "abi": [
    {
      "inputs": [],
      "stateMutability": "nonpayable",
      "type": "constructor"
    },
    {
      "anonymous": false,
      "inputs": [
        {
          "indexed": true,
          "internalType": "address",
          "name": "owner",
          "type": "address"
        },
        {
          "indexed": true,
          "internalType": "address",
          "name": "approved",
          "type": "address"
        },
        {
          "indexed": true,
          "internalType": "uint256",
          "name": "tokenId",
          "type": "uint256"
        }
      ],
      "name": "Approval",
      "type": "event"
    },
    {
      "anonymous": false,
      "inputs": [
        {
          "indexed": true,
          "internalType": "address",
          "name": "owner",
          "type": "address"
        },
        {
          "indexed": true,
          "internalType": "address",
          "name": "operator",
          "type": "address"
        },
        {
          "indexed": false,
          "internalType": "bool",
          "name": "approved",
          "type": "bool"
        }
      ],
      "name": "ApprovalForAll",
      "type": "event"
    },
    {
      "anonymous": false,
      "inputs": [
        {
          "indexed": true,
          "internalType": "address",
          "name": "from",
          "type": "address"
        },
        {
          "indexed": true,
          "internalType": "address",
          "name": "to",
          "type": "address"
        },
        {
          "indexed": true,
          "internalType": "uint256",
          "name": "tokenId",
          "type": "uint256"
        }
      ],
      "name": "Transfer",
      "type": "event"
    },
    {
      "inputs": [
        {
          "internalType": "address",
          "name": "to",
          "type": "address"
        },
        {
          "internalType": "uint256",
          "name": "tokenId",
          "type": "uint256"
        }
      ],
      "name": "approve",
      "outputs": [],
      "stateMutability": "nonpayable",
      "type": "function"
    },
    {
      "inputs": [
        {
          "internalType": "address",
          "name": "owner",
          "type": "address"
        }
      ],
      "name": "balanceOf",
      "outputs": [
        {
          "internalType": "uint256",
          "name": "",
          "type": "uint256"
        }
      ],
      "stateMutability": "view",
      "type": "function"
    },
    {
      "inputs": [
        {
          "internalType": "uint256",
          "name": "tokenId",
          "type": "uint256"
        }
      ],
      "name": "getApproved",
      "outputs": [
        {
          "internalType": "address",
          "name": "",
          "type": "address"
        }
      ],
      "stateMutability": "view",
      "type": "function"
    },
    {
      "inputs": [
        {
          "internalType": "address",
          "name": "owner",
          "type": "address"
        },
        {
          "internalType": "address",
          "name": "operator",
          "type": "address"
        }
      ],
      "name": "isApprovedForAll",
      "outputs": [
        {
          "internalType": "bool",
          "name": "",
          "type": "bool"
        }
      ],
      "stateMutability": "view",
      "type": "function"
    },
    {
      "inputs": [],
      "name": "name",
      "outputs": [
        {
          "internalType": "string",
          "name": "",
          "type": "string"
        }
      ],
      "stateMutability": "view",
      "type": "function"
    },
    {
      "inputs": [],
      "name": "nextTokenId",
      "outputs": [
        {
          "internalType": "uint256",
          "name": "",
          "type": "uint256"
        }
      ],
      "stateMutability": "view",
      "type": "function"
    },
    {
      "inputs": [
        {
          "internalType": "uint256",
          "name": "tokenId",
          "type": "uint256"
        }
      ],
      "name": "ownerOf",
      "outputs": [
        {
          "internalType": "address",
          "name": "",
          "type": "address"
        }
      ],
      "stateMutability": "view",
      "type": "function"
    },
    {
      "inputs": [
        {
          "internalType": "address",
          "name": "from",
          "type": "address"
        },
        {
          "internalType": "address",
          "name": "to",
          "type": "address"
        },
        {
          "internalType": "uint256",
          "name": "tokenId",
          "type": "uint256"
        }
      ],
      "name": "safeTransferFrom",
      "outputs": [],
      "stateMutability": "nonpayable",
      "type": "function"
    },
    {
      "inputs": [
        {
          "internalType": "address",
          "name": "from",
          "type": "address"
        },
        {
          "internalType": "address",
          "name": "to",
          "type": "address"
        },
        {
          "internalType": "uint256",
          "name": "tokenId",
          "type": "uint256"
        },
        {
          "internalType": "bytes",
          "name": "data",
          "type": "bytes"
        }
      ],
      "name": "safeTransferFrom",
      "outputs": [],
      "stateMutability": "nonpayable",
      "type": "function"
    },
    {
      "inputs": [
        {
          "internalType": "address",
          "name": "operator",
          "type": "address"
        },
        {
          "internalType": "bool",
          "name": "approved",
          "type": "bool"
        }
      ],
      "name": "setApprovalForAll",
      "outputs": [],
      "stateMutability": "nonpayable",
      "type": "function"
    },
    {
      "inputs": [
        {
          "internalType": "bytes4",
          "name": "interfaceId",
          "type": "bytes4"
        }
      ],
      "name": "supportsInterface",
      "outputs": [
        {
          "internalType": "bool",
          "name": "",
          "type": "bool"
        }
      ],
      "stateMutability": "view",
      "type": "function"
    },
    {
      "inputs": [],
      "name": "symbol",
      "outputs": [
        {
          "internalType": "string",
          "name": "",
          "type": "string"
        }
      ],
      "stateMutability": "view",
      "type": "function"
    },
    {
      "inputs": [
        {
          "internalType": "uint256",
          "name": "tokenId",
          "type": "uint256"
        }
      ],
      "name": "tokenURI",
      "outputs": [
        {
          "internalType": "string",
          "name": "",
          "type": "string"
        }
      ],
      "stateMutability": "view",
      "type": "function"
    },
    {
      "inputs": [
        {
          "internalType": "address",
          "name": "from",
          "type": "address"
        },
        {
          "internalType": "address",
          "name": "to",
          "type": "address"
        },
        {
          "internalType": "uint256",
          "name": "tokenId",
          "type": "uint256"
        }
      ],
      "name": "transferFrom",
      "outputs": [],
      "stateMutability": "nonpayable",
      "type": "function"
    },
    {
      "inputs": [],
      "name": "mint",
      "outputs": [],
      "stateMutability": "nonpayable",
      "type": "function"
    },
    {
      "inputs": [],
      "name": "transferToken",
      "outputs": [],
      "stateMutability": "nonpayable",
      "type": "function"
    },
    {
      "inputs": [],
      "name": "listTokenForsale",
      "outputs": [],
      "stateMutability": "nonpayable",
      "type": "function"
    },
    {
      "inputs": [],
      "name": "removeTokenForsale",
      "outputs": [],
      "stateMutability": "nonpayable",
      "type": "function"
    },
    {
      "inputs": [],
      "name": "purchaseToken",
      "outputs": [],
      "stateMutability": "nonpayable",
      "type": "function"
    }
  ],
  "bytecode": "0x608060405260016007553480156200001657600080fd5b506040518060400160405280600581526020017f4d794e46540000000000000000000000000000000000000000000000000000008152506040518060400160405280600381526020017f4e4654000000000000000000000000000000000000000000000000000000000081525081600090816200009491906200036f565b508060019081620000a691906200036f565b505050612710600660003273ffffffffffffffffffffffffffffffffffffffff1673ffffffffffffffffffffffffffffffffffffffff1681526020019081526020016000208190555062000456565b600081519050919050565b7f4e487b7100000000000000000000000000000000000000000000000000000000600052604160045260246000fd5b7f4e487b7100000000000000000000000000000000000000000000000000000000600052602260045260246000fd5b600060028204905060018216806200017757607f821691505b6020821081036200018d576200018c6200012f565b5b50919050565b60008190508160005260206000209050919050565b60006020601f8301049050919050565b600082821b905092915050565b600060088302620001f77fffffffffffffffffffffffffffffffffffffffffffffffffffffffffffffffff82620001b8565b620002038683620001b8565b95508019841693508086168417925050509392505050565b6000819050919050565b6000819050919050565b6000620002506200024a62000244846200021b565b62000225565b6200021b565b9050919050565b6000819050919050565b6200026c836200022f565b620002846200027b8262000257565b848454620001c5565b825550505050565b600090565b6200029b6200028c565b620002a881848462000261565b505050565b5b81811015620002d057620002c460008262000291565b600181019050620002ae565b5050565b601f8211156200031f57620002e98162000193565b620002f484620001a8565b8101602085101562000304578190505b6200031c6200031385620001a8565b830182620002ad565b50505b505050565b600082821c905092915050565b6000620003446000198460080262000324565b1980831691505092915050565b60006200035f838362000331565b9150826002028217905092915050565b6200037a82620000f5565b67ffffffffffffffff81111562000396576200039562000100565b5b620003a282546200015e565b620003af828285620002d4565b600060209050601f831160018114620003e75760008415620003d2578287015190505b620003de858262000351565b8655506200044e565b601f198416620003f78662000193565b60005b828110156200042157848901518255600182019150602085019450602081019050620003fa565b868310156200044157848901516200043d601f89168262000331565b8355505b6001600288020188555050505b505050505050565b6121d280620004666000396000f3fe608060405234801561001057600080fd5b50600436106101215760003560e01c806375794a3c116100ad578063a95c4d6211610071578063a95c4d62146102ce578063b88d4fde146102d8578063c39ded5e146102f4578063c87b56dd146102fe578063e985e9c51461032e57610121565b806375794a3c14610262578063799a53591461028057806395d89b411461028a578063a22cb465146102a8578063a3b0736b146102c457610121565b80631249c58b116100f45780631249c58b146101c057806323b872dd146101ca57806342842e0e146101e65780636352211e1461020257806370a082311461023257610121565b806301ffc9a71461012657806306fdde0314610156578063081812fc14610174578063095ea7b3146101a4575b600080fd5b610140600480360381019061013b91906115a6565b61035e565b60405161014d91906115ee565b60405180910390f35b61015e610440565b60405161016b9190611699565b60405180910390f35b61018e600480360381019061018991906116f1565b6104d2565b60405161019b919061175f565b60405180910390f35b6101be60048036038101906101b991906117a6565b610518565b005b6101c861062f565b005b6101e460048036038101906101df91906117e6565b610631565b005b61020060048036038101906101fb91906117e6565b610691565b005b61021c600480360381019061021791906116f1565b6106b1565b604051610229919061175f565b60405180910390f35b61024c60048036038101906102479190611839565b610737565b6040516102599190611875565b60405180910390f35b61026a6107ee565b6040516102779190611875565b60405180910390f35b6102886107f4565b005b6102926107f6565b60405161029f9190611699565b60405180910390f35b6102c260048036038101906102bd91906118bc565b610888565b005b6102cc61089e565b005b6102d66108a0565b005b6102f260048036038101906102ed9190611a31565b6108a2565b005b6102fc610904565b005b610318600480360381019061031391906116f1565b610906565b6040516103259190611699565b60405180910390f35b61034860048036038101906103439190611ab4565b61096e565b60405161035591906115ee565b60405180910390f35b60007f80ac58cd000000000000000000000000000000000000000000000000000000007bffffffffffffffffffffffffffffffffffffffffffffffffffffffff1916827bffffffffffffffffffffffffffffffffffffffffffffffffffffffff1916148061042957507f5b5e139f000000000000000000000000000000000000000000000000000000007bffffffffffffffffffffffffffffffffffffffffffffffffffffffff1916827bffffffffffffffffffffffffffffffffffffffffffffffffffffffff1916145b80610439575061043882610a02565b5b9050919050565b60606000805461044f90611b23565b80601f016020809104026020016040519081016040528092919081815260200182805461047b90611b23565b80156104c85780601f1061049d576101008083540402835291602001916104c8565b820191906000526020600020905b8154815290600101906020018083116104ab57829003601f168201915b5050505050905090565b60006104dd82610a6c565b6004600083815260200190815260200160002060009054906101000a900473ffffffffffffffffffffffffffffffffffffffff169050919050565b6000610523826106b1565b90508073ffffffffffffffffffffffffffffffffffffffff168373ffffffffffffffffffffffffffffffffffffffff1603610593576040517f08c379a000000000000000000000000000000000000000000000000000000000815260040161058a90611bc6565b60405180910390fd5b8073ffffffffffffffffffffffffffffffffffffffff166105b2610ab7565b73ffffffffffffffffffffffffffffffffffffffff1614806105e157506105e0816105db610ab7565b61096e565b5b610620576040517f08c379a000000000000000000000000000000000000000000000000000000000815260040161061790611c58565b60405180910390fd5b61062a8383610abf565b505050565b565b61064261063c610ab7565b82610b78565b610681576040517f08c379a000000000000000000000000000000000000000000000000000000000815260040161067890611cea565b60405180910390fd5b61068c838383610c0d565b505050565b6106ac838383604051806020016040528060008152506108a2565b505050565b6000806106bd83610f06565b9050600073ffffffffffffffffffffffffffffffffffffffff168173ffffffffffffffffffffffffffffffffffffffff160361072e576040517f08c379a000000000000000000000000000000000000000000000000000000000815260040161072590611d56565b60405180910390fd5b80915050919050565b60008073ffffffffffffffffffffffffffffffffffffffff168273ffffffffffffffffffffffffffffffffffffffff16036107a7576040517f08c379a000000000000000000000000000000000000000000000000000000000815260040161079e90611de8565b60405180910390fd5b600360008373ffffffffffffffffffffffffffffffffffffffff1673ffffffffffffffffffffffffffffffffffffffff168152602001908152602001600020549050919050565b60075481565b565b60606001805461080590611b23565b80601f016020809104026020016040519081016040528092919081815260200182805461083190611b23565b801561087e5780601f106108535761010080835404028352916020019161087e565b820191906000526020600020905b81548152906001019060200180831161086157829003601f168201915b5050505050905090565b61089a610893610ab7565b8383610f43565b5050565b565b565b6108b36108ad610ab7565b83610b78565b6108f2576040517f08c379a00000000000000000000000000000000000000000000000000000000081526004016108e990611cea565b60405180910390fd5b6108fe848484846110af565b50505050565b565b606061091182610a6c565b600061091b61110b565b9050600081511161093b5760405180602001604052806000815250610966565b8061094584611122565b604051602001610956929190611e44565b6040516020818303038152906040525b915050919050565b6000600560008473ffffffffffffffffffffffffffffffffffffffff1673ffffffffffffffffffffffffffffffffffffffff16815260200190815260200160002060008373ffffffffffffffffffffffffffffffffffffffff1673ffffffffffffffffffffffffffffffffffffffff16815260200190815260200160002060009054906101000a900460ff16905092915050565b60007f01ffc9a7000000000000000000000000000000000000000000000000000000007bffffffffffffffffffffffffffffffffffffffffffffffffffffffff1916827bffffffffffffffffffffffffffffffffffffffffffffffffffffffff1916149050919050565b610a75816111f0565b610ab4576040517f08c379a0000000000000000000000000000000000000000000000000000000008152600401610aab90611d56565b60405180910390fd5b50565b600033905090565b816004600083815260200190815260200160002060006101000a81548173ffffffffffffffffffffffffffffffffffffffff021916908373ffffffffffffffffffffffffffffffffffffffff160217905550808273ffffffffffffffffffffffffffffffffffffffff16610b32836106b1565b73ffffffffffffffffffffffffffffffffffffffff167f8c5be1e5ebec7d5bd14f71427d1e84f3dd0314c0f7b2291e5b200ac8c7c3b92560405160405180910390a45050565b600080610b84836106b1565b90508073ffffffffffffffffffffffffffffffffffffffff168473ffffffffffffffffffffffffffffffffffffffff161480610bc65750610bc5818561096e565b5b80610c0457508373ffffffffffffffffffffffffffffffffffffffff16610bec846104d2565b73ffffffffffffffffffffffffffffffffffffffff16145b91505092915050565b8273ffffffffffffffffffffffffffffffffffffffff16610c2d826106b1565b73ffffffffffffffffffffffffffffffffffffffff1614610c83576040517f08c379a0000000000000000000000000000000000000000000000000000000008152600401610c7a90611eda565b60405180910390fd5b600073ffffffffffffffffffffffffffffffffffffffff168273ffffffffffffffffffffffffffffffffffffffff1603610cf2576040517f08c379a0000000000000000000000000000000000000000000000000000000008152600401610ce990611f6c565b60405180910390fd5b610cff8383836001611231565b8273ffffffffffffffffffffffffffffffffffffffff16610d1f826106b1565b73ffffffffffffffffffffffffffffffffffffffff1614610d75576040517f08c379a0000000000000000000000000000000000000000000000000000000008152600401610d6c90611eda565b60405180910390fd5b6004600082815260200190815260200160002060006101000a81549073ffffffffffffffffffffffffffffffffffffffff02191690556001600360008573ffffffffffffffffffffffffffffffffffffffff1673ffffffffffffffffffffffffffffffffffffffff168152602001908152602001600020600082825403925050819055506001600360008473ffffffffffffffffffffffffffffffffffffffff1673ffffffffffffffffffffffffffffffffffffffff16815260200190815260200160002060008282540192505081905550816002600083815260200190815260200160002060006101000a81548173ffffffffffffffffffffffffffffffffffffffff021916908373ffffffffffffffffffffffffffffffffffffffff160217905550808273ffffffffffffffffffffffffffffffffffffffff168473ffffffffffffffffffffffffffffffffffffffff167fddf252ad1be2c89b69c2b068fc378daa952ba7f163c4a11628f55a4df523b3ef60405160405180910390a4610f018383836001611237565b505050565b60006002600083815260200190815260200160002060009054906101000a900473ffffffffffffffffffffffffffffffffffffffff169050919050565b8173ffffffffffffffffffffffffffffffffffffffff168373ffffffffffffffffffffffffffffffffffffffff1603610fb1576040517f08c379a0000000000000000000000000000000000000000000000000000000008152600401610fa890611fd8565b60405180910390fd5b80600560008573ffffffffffffffffffffffffffffffffffffffff1673ffffffffffffffffffffffffffffffffffffffff16815260200190815260200160002060008473ffffffffffffffffffffffffffffffffffffffff1673ffffffffffffffffffffffffffffffffffffffff16815260200190815260200160002060006101000a81548160ff0219169083151502179055508173ffffffffffffffffffffffffffffffffffffffff168373ffffffffffffffffffffffffffffffffffffffff167f17307eab39ab6107e8899845ad3d59bd9653f200f220920489ca2b5937696c31836040516110a291906115ee565b60405180910390a3505050565b6110ba848484610c0d565b6110c68484848461123d565b611105576040517f08c379a00000000000000000000000000000000000000000000000000000000081526004016110fc9061206a565b60405180910390fd5b50505050565b606060405180602001604052806000815250905090565b606060006001611131846113c4565b01905060008167ffffffffffffffff8111156111505761114f611906565b5b6040519080825280601f01601f1916602001820160405280156111825781602001600182028036833780820191505090505b509050600082602001820190505b6001156111e5578080600190039150507f3031323334353637383961626364656600000000000000000000000000000000600a86061a8153600a85816111d9576111d861208a565b5b04945060008503611190575b819350505050919050565b60008073ffffffffffffffffffffffffffffffffffffffff1661121283610f06565b73ffffffffffffffffffffffffffffffffffffffff1614159050919050565b50505050565b50505050565b600061125e8473ffffffffffffffffffffffffffffffffffffffff16611517565b156113b7578373ffffffffffffffffffffffffffffffffffffffff1663150b7a02611287610ab7565b8786866040518563ffffffff1660e01b81526004016112a9949392919061210e565b6020604051808303816000875af19250505080156112e557506040513d601f19601f820116820180604052508101906112e2919061216f565b60015b611367573d8060008114611315576040519150601f19603f3d011682016040523d82523d6000602084013e61131a565b606091505b50600081510361135f576040517f08c379a00000000000000000000000000000000000000000000000000000000081526004016113569061206a565b60405180910390fd5b805181602001fd5b63150b7a0260e01b7bffffffffffffffffffffffffffffffffffffffffffffffffffffffff1916817bffffffffffffffffffffffffffffffffffffffffffffffffffffffff1916149150506113bc565b600190505b949350505050565b600080600090507a184f03e93ff9f4daa797ed6e38ed64bf6a1f0100000000000000008310611422577a184f03e93ff9f4daa797ed6e38ed64bf6a1f01000000000000000083816114185761141761208a565b5b0492506040810190505b6d04ee2d6d415b85acef8100000000831061145f576d04ee2d6d415b85acef810000000083816114555761145461208a565b5b0492506020810190505b662386f26fc10000831061148e57662386f26fc1000083816114845761148361208a565b5b0492506010810190505b6305f5e10083106114b7576305f5e10083816114ad576114ac61208a565b5b0492506008810190505b61271083106114dc5761271083816114d2576114d161208a565b5b0492506004810190505b606483106114ff57606483816114f5576114f461208a565b5b0492506002810190505b600a831061150e576001810190505b80915050919050565b6000808273ffffffffffffffffffffffffffffffffffffffff163b119050919050565b6000604051905090565b600080fd5b600080fd5b60007fffffffff0000000000000000000000000000000000000000000000000000000082169050919050565b6115838161154e565b811461158e57600080fd5b50565b6000813590506115a08161157a565b92915050565b6000602082840312156115bc576115bb611544565b5b60006115ca84828501611591565b91505092915050565b60008115159050919050565b6115e8816115d3565b82525050565b600060208201905061160360008301846115df565b92915050565b600081519050919050565b600082825260208201905092915050565b60005b83811015611643578082015181840152602081019050611628565b60008484015250505050565b6000601f19601f8301169050919050565b600061166b82611609565b6116758185611614565b9350611685818560208601611625565b61168e8161164f565b840191505092915050565b600060208201905081810360008301526116b38184611660565b905092915050565b6000819050919050565b6116ce816116bb565b81146116d957600080fd5b50565b6000813590506116eb816116c5565b92915050565b60006020828403121561170757611706611544565b5b6000611715848285016116dc565b91505092915050565b600073ffffffffffffffffffffffffffffffffffffffff82169050919050565b60006117498261171e565b9050919050565b6117598161173e565b82525050565b60006020820190506117746000830184611750565b92915050565b6117838161173e565b811461178e57600080fd5b50565b6000813590506117a08161177a565b92915050565b600080604083850312156117bd576117bc611544565b5b60006117cb85828601611791565b92505060206117dc858286016116dc565b9150509250929050565b6000806000606084860312156117ff576117fe611544565b5b600061180d86828701611791565b935050602061181e86828701611791565b925050604061182f868287016116dc565b9150509250925092565b60006020828403121561184f5761184e611544565b5b600061185d84828501611791565b91505092915050565b61186f816116bb565b82525050565b600060208201905061188a6000830184611866565b92915050565b611899816115d3565b81146118a457600080fd5b50565b6000813590506118b681611890565b92915050565b600080604083850312156118d3576118d2611544565b5b60006118e185828601611791565b92505060206118f2858286016118a7565b9150509250929050565b600080fd5b600080fd5b7f4e487b7100000000000000000000000000000000000000000000000000000000600052604160045260246000fd5b61193e8261164f565b810181811067ffffffffffffffff8211171561195d5761195c611906565b5b80604052505050565b600061197061153a565b905061197c8282611935565b919050565b600067ffffffffffffffff82111561199c5761199b611906565b5b6119a58261164f565b9050602081019050919050565b82818337600083830152505050565b60006119d46119cf84611981565b611966565b9050828152602081018484840111156119f0576119ef611901565b5b6119fb8482856119b2565b509392505050565b600082601f830112611a1857611a176118fc565b5b8135611a288482602086016119c1565b91505092915050565b60008060008060808587031215611a4b57611a4a611544565b5b6000611a5987828801611791565b9450506020611a6a87828801611791565b9350506040611a7b878288016116dc565b925050606085013567ffffffffffffffff811115611a9c57611a9b611549565b5b611aa887828801611a03565b91505092959194509250565b60008060408385031215611acb57611aca611544565b5b6000611ad985828601611791565b9250506020611aea85828601611791565b9150509250929050565b7f4e487b7100000000000000000000000000000000000000000000000000000000600052602260045260246000fd5b60006002820490506001821680611b3b57607f821691505b602082108103611b4e57611b4d611af4565b5b50919050565b7f4552433732313a20617070726f76616c20746f2063757272656e74206f776e6560008201527f7200000000000000000000000000000000000000000000000000000000000000602082015250565b6000611bb0602183611614565b9150611bbb82611b54565b604082019050919050565b60006020820190508181036000830152611bdf81611ba3565b9050919050565b7f4552433732313a20617070726f76652063616c6c6572206973206e6f7420746f60008201527f6b656e206f776e6572206f7220617070726f76656420666f7220616c6c000000602082015250565b6000611c42603d83611614565b9150611c4d82611be6565b604082019050919050565b60006020820190508181036000830152611c7181611c35565b9050919050565b7f4552433732313a2063616c6c6572206973206e6f7420746f6b656e206f776e6560008201527f72206f7220617070726f76656400000000000000000000000000000000000000602082015250565b6000611cd4602d83611614565b9150611cdf82611c78565b604082019050919050565b60006020820190508181036000830152611d0381611cc7565b9050919050565b7f4552433732313a20696e76616c696420746f6b656e2049440000000000000000600082015250565b6000611d40601883611614565b9150611d4b82611d0a565b602082019050919050565b60006020820190508181036000830152611d6f81611d33565b9050919050565b7f4552433732313a2061646472657373207a65726f206973206e6f74206120766160008201527f6c6964206f776e65720000000000000000000000000000000000000000000000602082015250565b6000611dd2602983611614565b9150611ddd82611d76565b604082019050919050565b60006020820190508181036000830152611e0181611dc5565b9050919050565b600081905092915050565b6000611e1e82611609565b611e288185611e08565b9350611e38818560208601611625565b80840191505092915050565b6000611e508285611e13565b9150611e5c8284611e13565b91508190509392505050565b7f4552433732313a207472616e736665722066726f6d20696e636f72726563742060008201527f6f776e6572000000000000000000000000000000000000000000000000000000602082015250565b6000611ec4602583611614565b9150611ecf82611e68565b604082019050919050565b60006020820190508181036000830152611ef381611eb7565b9050919050565b7f4552433732313a207472616e7366657220746f20746865207a65726f2061646460008201527f7265737300000000000000000000000000000000000000000000000000000000602082015250565b6000611f56602483611614565b9150611f6182611efa565b604082019050919050565b60006020820190508181036000830152611f8581611f49565b9050919050565b7f4552433732313a20617070726f766520746f2063616c6c657200000000000000600082015250565b6000611fc2601983611614565b9150611fcd82611f8c565b602082019050919050565b60006020820190508181036000830152611ff181611fb5565b9050919050565b7f4552433732313a207472616e7366657220746f206e6f6e20455243373231526560008201527f63656976657220696d706c656d656e7465720000000000000000000000000000602082015250565b6000612054603283611614565b915061205f82611ff8565b604082019050919050565b6000602082019050818103600083015261208381612047565b9050919050565b7f4e487b7100000000000000000000000000000000000000000000000000000000600052601260045260246000fd5b600081519050919050565b600082825260208201905092915050565b60006120e0826120b9565b6120ea81856120c4565b93506120fa818560208601611625565b6121038161164f565b840191505092915050565b60006080820190506121236000830187611750565b6121306020830186611750565b61213d6040830185611866565b818103606083015261214f81846120d5565b905095945050505050565b6000815190506121698161157a565b92915050565b60006020828403121561218557612184611544565b5b60006121938482850161215a565b9150509291505056fea2646970667358221220bb81c83ffa71b7d9d4238f157b10e76dfdcc6254ff11aef9d294c6f5cf4cf77164736f6c63430008130033",
  "immutableReferences": {},
  "source": "// SPDX-License-Identifier: MIT\n// Tells the Solidity compiler to compile only from v0.8.13 to v0.9.0\npragma solidity ^0.8.19;\n\nimport \"@openzeppelin/contracts/token/ERC721/ERC721.sol\";\n\n// This is just a simple example of a coin-like contract.\n// It is not ERC20 compatible and cannot be expected to talk to other\n// coin/token contracts.\n\ncontract NDFMkr is ERC721 {\n\tmapping (address => uint) balances;\n    uint256 public nextTokenId = 1;\n    \n\n\n\tconstructor() ERC721(\"MyNFT\", \"NFT\") public {\n\t\tbalances[tx.origin] = 10000;\n\t}\n    // createNFT\n    function mint() public {\n\n\n    }\n\n    // transferNFT\n    function transferToken() public {\n\n    }\n\n    // list NFT for sale\n\n    function listTokenForsale() public {\n\n    }\n\n    // remove NFT\n    function removeTokenForsale() public {\n\n    }\n\n    // buy listed NFT\n    // only successful if the payment matched the price\n    function purchaseToken() public {\n\n    }\n\n\n}\n",
  "sourcePath": "C:\\Users\\zhang\\Desktop\\new\\contracts\\NFTMkt.sol",
  "compiler": {
    "name": "solc",
    "version": "0.8.19+commit.7dd6d404.Emscripten.clang"
  },
  "schemaVersion": "3.4.13",
  "updatedAt": "2023-04-30T21:08:07.874Z",
  "devdoc": {
    "events": {
      "Approval(address,address,uint256)": {
        "details": "Emitted when `owner` enables `approved` to manage the `tokenId` token."
      },
      "ApprovalForAll(address,address,bool)": {
        "details": "Emitted when `owner` enables or disables (`approved`) `operator` to manage all of its assets."
      },
      "Transfer(address,address,uint256)": {
        "details": "Emitted when `tokenId` token is transferred from `from` to `to`."
      }
    },
    "kind": "dev",
    "methods": {
      "approve(address,uint256)": {
        "details": "See {IERC721-approve}."
      },
      "balanceOf(address)": {
        "details": "See {IERC721-balanceOf}."
      },
      "getApproved(uint256)": {
        "details": "See {IERC721-getApproved}."
      },
      "isApprovedForAll(address,address)": {
        "details": "See {IERC721-isApprovedForAll}."
      },
      "name()": {
        "details": "See {IERC721Metadata-name}."
      },
      "ownerOf(uint256)": {
        "details": "See {IERC721-ownerOf}."
      },
      "safeTransferFrom(address,address,uint256)": {
        "details": "See {IERC721-safeTransferFrom}."
      },
      "safeTransferFrom(address,address,uint256,bytes)": {
        "details": "See {IERC721-safeTransferFrom}."
      },
      "setApprovalForAll(address,bool)": {
        "details": "See {IERC721-setApprovalForAll}."
      },
      "supportsInterface(bytes4)": {
        "details": "See {IERC165-supportsInterface}."
      },
      "symbol()": {
        "details": "See {IERC721Metadata-symbol}."
      },
      "tokenURI(uint256)": {
        "details": "See {IERC721Metadata-tokenURI}."
      },
      "transferFrom(address,address,uint256)": {
        "details": "See {IERC721-transferFrom}."
      }
    },
    "version": 1
  },
  "userdoc": {
    "kind": "user",
    "methods": {},
    "version": 1
  }
}