{
  "contractName": "NFT",
  "abi": [
    {
      "inputs": [],
      "stateMutability": "nonpayable",
      "type": "constructor"
    },
    {
      "anonymous": false,
      "inputs": [
        {
          "indexed": true,
          "internalType": "address",
          "name": "owner",
          "type": "address"
        },
        {
          "indexed": true,
          "internalType": "address",
          "name": "approved",
          "type": "address"
        },
        {
          "indexed": true,
          "internalType": "uint256",
          "name": "tokenId",
          "type": "uint256"
        }
      ],
      "name": "Approval",
      "type": "event"
    },
    {
      "anonymous": false,
      "inputs": [
        {
          "indexed": true,
          "internalType": "address",
          "name": "owner",
          "type": "address"
        },
        {
          "indexed": true,
          "internalType": "address",
          "name": "operator",
          "type": "address"
        },
        {
          "indexed": false,
          "internalType": "bool",
          "name": "approved",
          "type": "bool"
        }
      ],
      "name": "ApprovalForAll",
      "type": "event"
    },
    {
      "anonymous": false,
      "inputs": [
        {
          "indexed": false,
          "internalType": "uint256",
          "name": "listingId",
          "type": "uint256"
        },
        {
          "indexed": false,
          "internalType": "address",
          "name": "seller",
          "type": "address"
        },
        {
          "indexed": false,
          "internalType": "uint256",
          "name": "tokenId",
          "type": "uint256"
        },
        {
          "indexed": false,
          "internalType": "uint256",
          "name": "price",
          "type": "uint256"
        }
      ],
      "name": "Listed",
      "type": "event"
    },
    {
      "anonymous": false,
      "inputs": [
        {
          "indexed": true,
          "internalType": "address",
          "name": "from",
          "type": "address"
        },
        {
          "indexed": true,
          "internalType": "address",
          "name": "to",
          "type": "address"
        },
        {
          "indexed": true,
          "internalType": "uint256",
          "name": "tokenId",
          "type": "uint256"
        }
      ],
      "name": "Transfer",
      "type": "event"
    },
    {
      "inputs": [
        {
          "internalType": "address",
          "name": "to",
          "type": "address"
        },
        {
          "internalType": "uint256",
          "name": "tokenId",
          "type": "uint256"
        }
      ],
      "name": "approve",
      "outputs": [],
      "stateMutability": "nonpayable",
      "type": "function"
    },
    {
      "inputs": [
        {
          "internalType": "address",
          "name": "owner",
          "type": "address"
        }
      ],
      "name": "balanceOf",
      "outputs": [
        {
          "internalType": "uint256",
          "name": "",
          "type": "uint256"
        }
      ],
      "stateMutability": "view",
      "type": "function",
      "constant": true
    },
    {
      "inputs": [
        {
          "internalType": "uint256",
          "name": "tokenId",
          "type": "uint256"
        }
      ],
      "name": "getApproved",
      "outputs": [
        {
          "internalType": "address",
          "name": "",
          "type": "address"
        }
      ],
      "stateMutability": "view",
      "type": "function",
      "constant": true
    },
    {
      "inputs": [
        {
          "internalType": "address",
          "name": "owner",
          "type": "address"
        },
        {
          "internalType": "address",
          "name": "operator",
          "type": "address"
        }
      ],
      "name": "isApprovedForAll",
      "outputs": [
        {
          "internalType": "bool",
          "name": "",
          "type": "bool"
        }
      ],
      "stateMutability": "view",
      "type": "function",
      "constant": true
    },
    {
      "inputs": [],
      "name": "name",
      "outputs": [
        {
          "internalType": "string",
          "name": "",
          "type": "string"
        }
      ],
      "stateMutability": "view",
      "type": "function",
      "constant": true
    },
    {
      "inputs": [
        {
          "internalType": "uint256",
          "name": "tokenId",
          "type": "uint256"
        }
      ],
      "name": "ownerOf",
      "outputs": [
        {
          "internalType": "address",
          "name": "",
          "type": "address"
        }
      ],
      "stateMutability": "view",
      "type": "function",
      "constant": true
    },
    {
      "inputs": [
        {
          "internalType": "address",
          "name": "from",
          "type": "address"
        },
        {
          "internalType": "address",
          "name": "to",
          "type": "address"
        },
        {
          "internalType": "uint256",
          "name": "tokenId",
          "type": "uint256"
        }
      ],
      "name": "safeTransferFrom",
      "outputs": [],
      "stateMutability": "nonpayable",
      "type": "function"
    },
    {
      "inputs": [
        {
          "internalType": "address",
          "name": "from",
          "type": "address"
        },
        {
          "internalType": "address",
          "name": "to",
          "type": "address"
        },
        {
          "internalType": "uint256",
          "name": "tokenId",
          "type": "uint256"
        },
        {
          "internalType": "bytes",
          "name": "data",
          "type": "bytes"
        }
      ],
      "name": "safeTransferFrom",
      "outputs": [],
      "stateMutability": "nonpayable",
      "type": "function"
    },
    {
      "inputs": [
        {
          "internalType": "address",
          "name": "operator",
          "type": "address"
        },
        {
          "internalType": "bool",
          "name": "approved",
          "type": "bool"
        }
      ],
      "name": "setApprovalForAll",
      "outputs": [],
      "stateMutability": "nonpayable",
      "type": "function"
    },
    {
      "inputs": [
        {
          "internalType": "bytes4",
          "name": "interfaceId",
          "type": "bytes4"
        }
      ],
      "name": "supportsInterface",
      "outputs": [
        {
          "internalType": "bool",
          "name": "",
          "type": "bool"
        }
      ],
      "stateMutability": "view",
      "type": "function",
      "constant": true
    },
    {
      "inputs": [],
      "name": "symbol",
      "outputs": [
        {
          "internalType": "string",
          "name": "",
          "type": "string"
        }
      ],
      "stateMutability": "view",
      "type": "function",
      "constant": true
    },
    {
      "inputs": [
        {
          "internalType": "uint256",
          "name": "tokenId",
          "type": "uint256"
        }
      ],
      "name": "tokenURI",
      "outputs": [
        {
          "internalType": "string",
          "name": "",
          "type": "string"
        }
      ],
      "stateMutability": "view",
      "type": "function",
      "constant": true
    },
    {
      "inputs": [
        {
          "internalType": "address",
          "name": "from",
          "type": "address"
        },
        {
          "internalType": "address",
          "name": "to",
          "type": "address"
        },
        {
          "internalType": "uint256",
          "name": "tokenId",
          "type": "uint256"
        }
      ],
      "name": "transferFrom",
      "outputs": [],
      "stateMutability": "nonpayable",
      "type": "function"
    },
    {
      "inputs": [
        {
          "internalType": "address",
          "name": "to",
          "type": "address"
        },
        {
          "internalType": "uint256",
          "name": "tokenId",
          "type": "uint256"
        },
        {
          "internalType": "string",
          "name": "name",
          "type": "string"
        },
        {
          "internalType": "string",
          "name": "description",
          "type": "string"
        }
      ],
      "name": "mint",
      "outputs": [],
      "stateMutability": "nonpayable",
      "type": "function"
    },
    {
      "inputs": [
        {
          "internalType": "uint256",
          "name": "tokenId",
          "type": "uint256"
        }
      ],
      "name": "getTokenData",
      "outputs": [
        {
          "components": [
            {
              "internalType": "string",
              "name": "name",
              "type": "string"
            },
            {
              "internalType": "string",
              "name": "description",
              "type": "string"
            }
          ],
          "internalType": "struct NFT.TokenData",
          "name": "",
          "type": "tuple"
        }
      ],
      "stateMutability": "view",
      "type": "function",
      "constant": true
    },
    {
      "inputs": [
        {
          "internalType": "uint256",
          "name": "tokenId",
          "type": "uint256"
        },
        {
          "internalType": "uint256",
          "name": "price",
          "type": "uint256"
        },
        {
          "internalType": "uint256",
          "name": "listingId",
          "type": "uint256"
        }
      ],
      "name": "listToken",
      "outputs": [],
      "stateMutability": "nonpayable",
      "type": "function"
    },
    {
      "inputs": [
        {
          "internalType": "uint256",
          "name": "listingId",
          "type": "uint256"
        }
      ],
      "name": "getListing",
      "outputs": [
        {
          "components": [
            {
              "internalType": "enum NFT.ListingStatus",
              "name": "status",
              "type": "uint8"
            },
            {
              "internalType": "address",
              "name": "seller",
              "type": "address"
            },
            {
              "internalType": "uint256",
              "name": "tokenId",
              "type": "uint256"
            },
            {
              "internalType": "uint256",
              "name": "price",
              "type": "uint256"
            }
          ],
          "internalType": "struct NFT.Listing",
          "name": "",
          "type": "tuple"
        }
      ],
      "stateMutability": "view",
      "type": "function",
      "constant": true
    },
    {
      "inputs": [
        {
          "internalType": "uint256",
          "name": "listingId",
          "type": "uint256"
        }
      ],
      "name": "buyToken",
      "outputs": [],
      "stateMutability": "payable",
      "type": "function",
      "payable": true
    },
    {
      "inputs": [
        {
          "internalType": "uint256",
          "name": "listingId",
          "type": "uint256"
        }
      ],
      "name": "cancel",
      "outputs": [],
      "stateMutability": "nonpayable",
      "type": "function"
    }
  ],
  "bytecode": "0x60806040523480156200001157600080fd5b506040518060400160405280600b81526020017f436f6f6c657374204e46540000000000000000000000000000000000000000008152506040518060400160405280600381526020017f4e4654000000000000000000000000000000000000000000000000000000000081525081600090816200008f919062000324565b508060019081620000a1919062000324565b5050506200040b565b600081519050919050565b7f4e487b7100000000000000000000000000000000000000000000000000000000600052604160045260246000fd5b7f4e487b7100000000000000000000000000000000000000000000000000000000600052602260045260246000fd5b600060028204905060018216806200012c57607f821691505b602082108103620001425762000141620000e4565b5b50919050565b60008190508160005260206000209050919050565b60006020601f8301049050919050565b600082821b905092915050565b600060088302620001ac7fffffffffffffffffffffffffffffffffffffffffffffffffffffffffffffffff826200016d565b620001b886836200016d565b95508019841693508086168417925050509392505050565b6000819050919050565b6000819050919050565b600062000205620001ff620001f984620001d0565b620001da565b620001d0565b9050919050565b6000819050919050565b6200022183620001e4565b6200023962000230826200020c565b8484546200017a565b825550505050565b600090565b6200025062000241565b6200025d81848462000216565b505050565b5b8181101562000285576200027960008262000246565b60018101905062000263565b5050565b601f821115620002d4576200029e8162000148565b620002a9846200015d565b81016020851015620002b9578190505b620002d1620002c8856200015d565b83018262000262565b50505b505050565b600082821c905092915050565b6000620002f960001984600802620002d9565b1980831691505092915050565b6000620003148383620002e6565b9150826002028217905092915050565b6200032f82620000aa565b67ffffffffffffffff8111156200034b576200034a620000b5565b5b62000357825462000113565b6200036482828562000289565b600060209050601f8311600181146200039c576000841562000387578287015190505b62000393858262000306565b86555062000403565b601f198416620003ac8662000148565b60005b82811015620003d657848901518255600182019150602085019450602081019050620003af565b86831015620003f65784890151620003f2601f891682620002e6565b8355505b6001600288020188555050505b505050505050565b613681806200041b6000396000f3fe6080604052600436106101145760003560e01c806342842e0e116100a0578063b09afec111610064578063b09afec1146103b2578063b88d4fde146103ef578063bce64a7d14610418578063c87b56dd14610441578063e985e9c51461047e57610114565b806342842e0e146102bb5780636352211e146102e457806370a082311461032157806395d89b411461035e578063a22cb4651461038957610114565b8063107a274a116100e7578063107a274a146101e757806323b872dd146102245780632d296bf11461024d5780632fb102cf1461026957806340e58ee51461029257610114565b806301ffc9a71461011957806306fdde0314610156578063081812fc14610181578063095ea7b3146101be575b600080fd5b34801561012557600080fd5b50610140600480360381019061013b91906121d0565b6104bb565b60405161014d9190612218565b60405180910390f35b34801561016257600080fd5b5061016b61059d565b60405161017891906122c3565b60405180910390f35b34801561018d57600080fd5b506101a860048036038101906101a3919061231b565b61062f565b6040516101b59190612389565b60405180910390f35b3480156101ca57600080fd5b506101e560048036038101906101e091906123d0565b610675565b005b3480156101f357600080fd5b5061020e6004803603810190610209919061231b565b61078c565b60405161021b91906124fa565b60405180910390f35b34801561023057600080fd5b5061024b60048036038101906102469190612515565b61085e565b005b6102676004803603810190610262919061231b565b6108be565b005b34801561027557600080fd5b50610290600480360381019061028b919061269d565b610af2565b005b34801561029e57600080fd5b506102b960048036038101906102b4919061231b565b610b56565b005b3480156102c757600080fd5b506102e260048036038101906102dd9190612515565b610d1b565b005b3480156102f057600080fd5b5061030b6004803603810190610306919061231b565b610d3b565b6040516103189190612389565b60405180910390f35b34801561032d57600080fd5b506103486004803603810190610343919061273c565b610dc1565b6040516103559190612778565b60405180910390f35b34801561036a57600080fd5b50610373610e78565b60405161038091906122c3565b60405180910390f35b34801561039557600080fd5b506103b060048036038101906103ab91906127bf565b610f0a565b005b3480156103be57600080fd5b506103d960048036038101906103d4919061231b565b610f20565b6040516103e6919061288d565b60405180910390f35b3480156103fb57600080fd5b5061041660048036038101906104119190612950565b611071565b005b34801561042457600080fd5b5061043f600480360381019061043a91906129d3565b6110d3565b005b34801561044d57600080fd5b506104686004803603810190610463919061231b565b6111d4565b60405161047591906122c3565b60405180910390f35b34801561048a57600080fd5b506104a560048036038101906104a09190612a26565b61123c565b6040516104b29190612218565b60405180910390f35b60007f80ac58cd000000000000000000000000000000000000000000000000000000007bffffffffffffffffffffffffffffffffffffffffffffffffffffffff1916827bffffffffffffffffffffffffffffffffffffffffffffffffffffffff1916148061058657507f5b5e139f000000000000000000000000000000000000000000000000000000007bffffffffffffffffffffffffffffffffffffffffffffffffffffffff1916827bffffffffffffffffffffffffffffffffffffffffffffffffffffffff1916145b806105965750610595826112d0565b5b9050919050565b6060600080546105ac90612a95565b80601f01602080910402602001604051908101604052809291908181526020018280546105d890612a95565b80156106255780601f106105fa57610100808354040283529160200191610625565b820191906000526020600020905b81548152906001019060200180831161060857829003601f168201915b5050505050905090565b600061063a8261133a565b6004600083815260200190815260200160002060009054906101000a900473ffffffffffffffffffffffffffffffffffffffff169050919050565b600061068082610d3b565b90508073ffffffffffffffffffffffffffffffffffffffff168373ffffffffffffffffffffffffffffffffffffffff16036106f0576040517f08c379a00000000000000000000000000000000000000000000000000000000081526004016106e790612b38565b60405180910390fd5b8073ffffffffffffffffffffffffffffffffffffffff1661070f611385565b73ffffffffffffffffffffffffffffffffffffffff16148061073e575061073d81610738611385565b61123c565b5b61077d576040517f08c379a000000000000000000000000000000000000000000000000000000000815260040161077490612bca565b60405180910390fd5b610787838361138d565b505050565b6107946120fa565b600660008381526020019081526020016000206040518060800160405290816000820160009054906101000a900460ff1660028111156107d7576107d6612410565b5b60028111156107e9576107e8612410565b5b81526020016000820160019054906101000a900473ffffffffffffffffffffffffffffffffffffffff1673ffffffffffffffffffffffffffffffffffffffff1673ffffffffffffffffffffffffffffffffffffffff168152602001600182015481526020016002820154815250509050919050565b61086f610869611385565b82611446565b6108ae576040517f08c379a00000000000000000000000000000000000000000000000000000000081526004016108a590612c5c565b60405180910390fd5b6108b98383836114db565b505050565b60006006600083815260200190815260200160002090508060000160019054906101000a900473ffffffffffffffffffffffffffffffffffffffff1673ffffffffffffffffffffffffffffffffffffffff163373ffffffffffffffffffffffffffffffffffffffff1603610967576040517f08c379a000000000000000000000000000000000000000000000000000000000815260040161095e90612cc8565b60405180910390fd5b6000600281111561097b5761097a612410565b5b8160000160009054906101000a900460ff16600281111561099f5761099e612410565b5b146109df576040517f08c379a00000000000000000000000000000000000000000000000000000000081526004016109d690612d34565b60405180910390fd5b60018160000160006101000a81548160ff02191690836002811115610a0757610a06612410565b5b02179055503073ffffffffffffffffffffffffffffffffffffffff166323b872dd303384600101546040518463ffffffff1660e01b8152600401610a4d93929190612d54565b600060405180830381600087803b158015610a6757600080fd5b505af1158015610a7b573d6000803e3d6000fd5b505050508060000160019054906101000a900473ffffffffffffffffffffffffffffffffffffffff1673ffffffffffffffffffffffffffffffffffffffff166108fc82600201549081150290604051600060405180830381858888f19350505050158015610aed573d6000803e3d6000fd5b505050565b610afb836117d4565b15610b3b576040517f08c379a0000000000000000000000000000000000000000000000000000000008152600401610b3290612dd7565b60405180910390fd5b610b458484611815565b610b50838383611833565b50505050565b60006006600083815260200190815260200160002090508060000160019054906101000a900473ffffffffffffffffffffffffffffffffffffffff1673ffffffffffffffffffffffffffffffffffffffff163373ffffffffffffffffffffffffffffffffffffffff1614610bff576040517f08c379a0000000000000000000000000000000000000000000000000000000008152600401610bf690612e43565b60405180910390fd5b60006002811115610c1357610c12612410565b5b8160000160009054906101000a900460ff166002811115610c3757610c36612410565b5b14610c77576040517f08c379a0000000000000000000000000000000000000000000000000000000008152600401610c6e90612d34565b60405180910390fd5b60028160000160006101000a81548160ff02191690836002811115610c9f57610c9e612410565b5b02179055503073ffffffffffffffffffffffffffffffffffffffff166323b872dd303384600101546040518463ffffffff1660e01b8152600401610ce593929190612d54565b600060405180830381600087803b158015610cff57600080fd5b505af1158015610d13573d6000803e3d6000fd5b505050505050565b610d3683838360405180602001604052806000815250611071565b505050565b600080610d478361188f565b9050600073ffffffffffffffffffffffffffffffffffffffff168173ffffffffffffffffffffffffffffffffffffffff1603610db8576040517f08c379a0000000000000000000000000000000000000000000000000000000008152600401610daf90612eaf565b60405180910390fd5b80915050919050565b60008073ffffffffffffffffffffffffffffffffffffffff168273ffffffffffffffffffffffffffffffffffffffff1603610e31576040517f08c379a0000000000000000000000000000000000000000000000000000000008152600401610e2890612f41565b60405180910390fd5b600360008373ffffffffffffffffffffffffffffffffffffffff1673ffffffffffffffffffffffffffffffffffffffff168152602001908152602001600020549050919050565b606060018054610e8790612a95565b80601f0160208091040260200160405190810160405280929190818152602001828054610eb390612a95565b8015610f005780601f10610ed557610100808354040283529160200191610f00565b820191906000526020600020905b815481529060010190602001808311610ee357829003601f168201915b5050505050905090565b610f1c610f15611385565b83836118cc565b5050565b610f2861214a565b60076000838152602001908152602001600020604051806040016040529081600082018054610f5690612a95565b80601f0160208091040260200160405190810160405280929190818152602001828054610f8290612a95565b8015610fcf5780601f10610fa457610100808354040283529160200191610fcf565b820191906000526020600020905b815481529060010190602001808311610fb257829003601f168201915b50505050508152602001600182018054610fe890612a95565b80601f016020809104026020016040519081016040528092919081815260200182805461101490612a95565b80156110615780601f1061103657610100808354040283529160200191611061565b820191906000526020600020905b81548152906001019060200180831161104457829003601f168201915b5050505050815250509050919050565b61108261107c611385565b83611446565b6110c1576040517f08c379a00000000000000000000000000000000000000000000000000000000081526004016110b890612c5c565b60405180910390fd5b6110cd84848484611a38565b50505050565b6110de33308561085e565b60006040518060800160405280600060028111156110ff576110fe612410565b5b81526020013373ffffffffffffffffffffffffffffffffffffffff168152602001858152602001848152509050806006600084815260200190815260200160002060008201518160000160006101000a81548160ff0219169083600281111561116b5761116a612410565b5b021790555060208201518160000160016101000a81548173ffffffffffffffffffffffffffffffffffffffff021916908373ffffffffffffffffffffffffffffffffffffffff160217905550604082015181600101556060820151816002015590505050505050565b60606111df8261133a565b60006111e9611a94565b905060008151116112095760405180602001604052806000815250611234565b8061121384611aab565b604051602001611224929190612f9d565b6040516020818303038152906040525b915050919050565b6000600560008473ffffffffffffffffffffffffffffffffffffffff1673ffffffffffffffffffffffffffffffffffffffff16815260200190815260200160002060008373ffffffffffffffffffffffffffffffffffffffff1673ffffffffffffffffffffffffffffffffffffffff16815260200190815260200160002060009054906101000a900460ff16905092915050565b60007f01ffc9a7000000000000000000000000000000000000000000000000000000007bffffffffffffffffffffffffffffffffffffffffffffffffffffffff1916827bffffffffffffffffffffffffffffffffffffffffffffffffffffffff1916149050919050565b611343816117d4565b611382576040517f08c379a000000000000000000000000000000000000000000000000000000000815260040161137990612eaf565b60405180910390fd5b50565b600033905090565b816004600083815260200190815260200160002060006101000a81548173ffffffffffffffffffffffffffffffffffffffff021916908373ffffffffffffffffffffffffffffffffffffffff160217905550808273ffffffffffffffffffffffffffffffffffffffff1661140083610d3b565b73ffffffffffffffffffffffffffffffffffffffff167f8c5be1e5ebec7d5bd14f71427d1e84f3dd0314c0f7b2291e5b200ac8c7c3b92560405160405180910390a45050565b60008061145283610d3b565b90508073ffffffffffffffffffffffffffffffffffffffff168473ffffffffffffffffffffffffffffffffffffffff1614806114945750611493818561123c565b5b806114d257508373ffffffffffffffffffffffffffffffffffffffff166114ba8461062f565b73ffffffffffffffffffffffffffffffffffffffff16145b91505092915050565b8273ffffffffffffffffffffffffffffffffffffffff166114fb82610d3b565b73ffffffffffffffffffffffffffffffffffffffff1614611551576040517f08c379a000000000000000000000000000000000000000000000000000000000815260040161154890613033565b60405180910390fd5b600073ffffffffffffffffffffffffffffffffffffffff168273ffffffffffffffffffffffffffffffffffffffff16036115c0576040517f08c379a00000000000000000000000000000000000000000000000000000000081526004016115b7906130c5565b60405180910390fd5b6115cd8383836001611b79565b8273ffffffffffffffffffffffffffffffffffffffff166115ed82610d3b565b73ffffffffffffffffffffffffffffffffffffffff1614611643576040517f08c379a000000000000000000000000000000000000000000000000000000000815260040161163a90613033565b60405180910390fd5b6004600082815260200190815260200160002060006101000a81549073ffffffffffffffffffffffffffffffffffffffff02191690556001600360008573ffffffffffffffffffffffffffffffffffffffff1673ffffffffffffffffffffffffffffffffffffffff168152602001908152602001600020600082825403925050819055506001600360008473ffffffffffffffffffffffffffffffffffffffff1673ffffffffffffffffffffffffffffffffffffffff16815260200190815260200160002060008282540192505081905550816002600083815260200190815260200160002060006101000a81548173ffffffffffffffffffffffffffffffffffffffff021916908373ffffffffffffffffffffffffffffffffffffffff160217905550808273ffffffffffffffffffffffffffffffffffffffff168473ffffffffffffffffffffffffffffffffffffffff167fddf252ad1be2c89b69c2b068fc378daa952ba7f163c4a11628f55a4df523b3ef60405160405180910390a46117cf8383836001611b7f565b505050565b60008073ffffffffffffffffffffffffffffffffffffffff166117f68361188f565b73ffffffffffffffffffffffffffffffffffffffff1614159050919050565b61182f828260405180602001604052806000815250611b85565b5050565b6040518060400160405280838152602001828152506007600085815260200190815260200160002060008201518160000190816118709190613291565b5060208201518160010190816118869190613291565b50905050505050565b60006002600083815260200190815260200160002060009054906101000a900473ffffffffffffffffffffffffffffffffffffffff169050919050565b8173ffffffffffffffffffffffffffffffffffffffff168373ffffffffffffffffffffffffffffffffffffffff160361193a576040517f08c379a0000000000000000000000000000000000000000000000000000000008152600401611931906133af565b60405180910390fd5b80600560008573ffffffffffffffffffffffffffffffffffffffff1673ffffffffffffffffffffffffffffffffffffffff16815260200190815260200160002060008473ffffffffffffffffffffffffffffffffffffffff1673ffffffffffffffffffffffffffffffffffffffff16815260200190815260200160002060006101000a81548160ff0219169083151502179055508173ffffffffffffffffffffffffffffffffffffffff168373ffffffffffffffffffffffffffffffffffffffff167f17307eab39ab6107e8899845ad3d59bd9653f200f220920489ca2b5937696c3183604051611a2b9190612218565b60405180910390a3505050565b611a438484846114db565b611a4f84848484611be0565b611a8e576040517f08c379a0000000000000000000000000000000000000000000000000000000008152600401611a8590613441565b60405180910390fd5b50505050565b606060405180602001604052806000815250905090565b606060006001611aba84611d67565b01905060008167ffffffffffffffff811115611ad957611ad8612572565b5b6040519080825280601f01601f191660200182016040528015611b0b5781602001600182028036833780820191505090505b509050600082602001820190505b600115611b6e578080600190039150507f3031323334353637383961626364656600000000000000000000000000000000600a86061a8153600a8581611b6257611b61613461565b5b04945060008503611b19575b819350505050919050565b50505050565b50505050565b611b8f8383611eba565b611b9c6000848484611be0565b611bdb576040517f08c379a0000000000000000000000000000000000000000000000000000000008152600401611bd290613441565b60405180910390fd5b505050565b6000611c018473ffffffffffffffffffffffffffffffffffffffff166120d7565b15611d5a578373ffffffffffffffffffffffffffffffffffffffff1663150b7a02611c2a611385565b8786866040518563ffffffff1660e01b8152600401611c4c94939291906134e5565b6020604051808303816000875af1925050508015611c8857506040513d601f19601f82011682018060405250810190611c859190613546565b60015b611d0a573d8060008114611cb8576040519150601f19603f3d011682016040523d82523d6000602084013e611cbd565b606091505b506000815103611d02576040517f08c379a0000000000000000000000000000000000000000000000000000000008152600401611cf990613441565b60405180910390fd5b805181602001fd5b63150b7a0260e01b7bffffffffffffffffffffffffffffffffffffffffffffffffffffffff1916817bffffffffffffffffffffffffffffffffffffffffffffffffffffffff191614915050611d5f565b600190505b949350505050565b600080600090507a184f03e93ff9f4daa797ed6e38ed64bf6a1f0100000000000000008310611dc5577a184f03e93ff9f4daa797ed6e38ed64bf6a1f0100000000000000008381611dbb57611dba613461565b5b0492506040810190505b6d04ee2d6d415b85acef81000000008310611e02576d04ee2d6d415b85acef81000000008381611df857611df7613461565b5b0492506020810190505b662386f26fc100008310611e3157662386f26fc100008381611e2757611e26613461565b5b0492506010810190505b6305f5e1008310611e5a576305f5e1008381611e5057611e4f613461565b5b0492506008810190505b6127108310611e7f576127108381611e7557611e74613461565b5b0492506004810190505b60648310611ea25760648381611e9857611e97613461565b5b0492506002810190505b600a8310611eb1576001810190505b80915050919050565b600073ffffffffffffffffffffffffffffffffffffffff168273ffffffffffffffffffffffffffffffffffffffff1603611f29576040517f08c379a0000000000000000000000000000000000000000000000000000000008152600401611f20906135bf565b60405180910390fd5b611f32816117d4565b15611f72576040517f08c379a0000000000000000000000000000000000000000000000000000000008152600401611f699061362b565b60405180910390fd5b611f80600083836001611b79565b611f89816117d4565b15611fc9576040517f08c379a0000000000000000000000000000000000000000000000000000000008152600401611fc09061362b565b60405180910390fd5b6001600360008473ffffffffffffffffffffffffffffffffffffffff1673ffffffffffffffffffffffffffffffffffffffff16815260200190815260200160002060008282540192505081905550816002600083815260200190815260200160002060006101000a81548173ffffffffffffffffffffffffffffffffffffffff021916908373ffffffffffffffffffffffffffffffffffffffff160217905550808273ffffffffffffffffffffffffffffffffffffffff16600073ffffffffffffffffffffffffffffffffffffffff167fddf252ad1be2c89b69c2b068fc378daa952ba7f163c4a11628f55a4df523b3ef60405160405180910390a46120d3600083836001611b7f565b5050565b6000808273ffffffffffffffffffffffffffffffffffffffff163b119050919050565b60405180608001604052806000600281111561211957612118612410565b5b8152602001600073ffffffffffffffffffffffffffffffffffffffff16815260200160008152602001600081525090565b604051806040016040528060608152602001606081525090565b6000604051905090565b600080fd5b600080fd5b60007fffffffff0000000000000000000000000000000000000000000000000000000082169050919050565b6121ad81612178565b81146121b857600080fd5b50565b6000813590506121ca816121a4565b92915050565b6000602082840312156121e6576121e561216e565b5b60006121f4848285016121bb565b91505092915050565b60008115159050919050565b612212816121fd565b82525050565b600060208201905061222d6000830184612209565b92915050565b600081519050919050565b600082825260208201905092915050565b60005b8381101561226d578082015181840152602081019050612252565b60008484015250505050565b6000601f19601f8301169050919050565b600061229582612233565b61229f818561223e565b93506122af81856020860161224f565b6122b881612279565b840191505092915050565b600060208201905081810360008301526122dd818461228a565b905092915050565b6000819050919050565b6122f8816122e5565b811461230357600080fd5b50565b600081359050612315816122ef565b92915050565b6000602082840312156123315761233061216e565b5b600061233f84828501612306565b91505092915050565b600073ffffffffffffffffffffffffffffffffffffffff82169050919050565b600061237382612348565b9050919050565b61238381612368565b82525050565b600060208201905061239e600083018461237a565b92915050565b6123ad81612368565b81146123b857600080fd5b50565b6000813590506123ca816123a4565b92915050565b600080604083850312156123e7576123e661216e565b5b60006123f5858286016123bb565b925050602061240685828601612306565b9150509250929050565b7f4e487b7100000000000000000000000000000000000000000000000000000000600052602160045260246000fd5b600381106124505761244f612410565b5b50565b60008190506124618261243f565b919050565b600061247182612453565b9050919050565b61248181612466565b82525050565b61249081612368565b82525050565b61249f816122e5565b82525050565b6080820160008201516124bb6000850182612478565b5060208201516124ce6020850182612487565b5060408201516124e16040850182612496565b5060608201516124f46060850182612496565b50505050565b600060808201905061250f60008301846124a5565b92915050565b60008060006060848603121561252e5761252d61216e565b5b600061253c868287016123bb565b935050602061254d868287016123bb565b925050604061255e86828701612306565b9150509250925092565b600080fd5b600080fd5b7f4e487b7100000000000000000000000000000000000000000000000000000000600052604160045260246000fd5b6125aa82612279565b810181811067ffffffffffffffff821117156125c9576125c8612572565b5b80604052505050565b60006125dc612164565b90506125e882826125a1565b919050565b600067ffffffffffffffff82111561260857612607612572565b5b61261182612279565b9050602081019050919050565b82818337600083830152505050565b600061264061263b846125ed565b6125d2565b90508281526020810184848401111561265c5761265b61256d565b5b61266784828561261e565b509392505050565b600082601f83011261268457612683612568565b5b813561269484826020860161262d565b91505092915050565b600080600080608085870312156126b7576126b661216e565b5b60006126c5878288016123bb565b94505060206126d687828801612306565b935050604085013567ffffffffffffffff8111156126f7576126f6612173565b5b6127038782880161266f565b925050606085013567ffffffffffffffff81111561272457612723612173565b5b6127308782880161266f565b91505092959194509250565b6000602082840312156127525761275161216e565b5b6000612760848285016123bb565b91505092915050565b612772816122e5565b82525050565b600060208201905061278d6000830184612769565b92915050565b61279c816121fd565b81146127a757600080fd5b50565b6000813590506127b981612793565b92915050565b600080604083850312156127d6576127d561216e565b5b60006127e4858286016123bb565b92505060206127f5858286016127aa565b9150509250929050565b600082825260208201905092915050565b600061281b82612233565b61282581856127ff565b935061283581856020860161224f565b61283e81612279565b840191505092915050565b600060408301600083015184820360008601526128668282612810565b915050602083015184820360208601526128808282612810565b9150508091505092915050565b600060208201905081810360008301526128a78184612849565b905092915050565b600067ffffffffffffffff8211156128ca576128c9612572565b5b6128d382612279565b9050602081019050919050565b60006128f36128ee846128af565b6125d2565b90508281526020810184848401111561290f5761290e61256d565b5b61291a84828561261e565b509392505050565b600082601f83011261293757612936612568565b5b81356129478482602086016128e0565b91505092915050565b6000806000806080858703121561296a5761296961216e565b5b6000612978878288016123bb565b9450506020612989878288016123bb565b935050604061299a87828801612306565b925050606085013567ffffffffffffffff8111156129bb576129ba612173565b5b6129c787828801612922565b91505092959194509250565b6000806000606084860312156129ec576129eb61216e565b5b60006129fa86828701612306565b9350506020612a0b86828701612306565b9250506040612a1c86828701612306565b9150509250925092565b60008060408385031215612a3d57612a3c61216e565b5b6000612a4b858286016123bb565b9250506020612a5c858286016123bb565b9150509250929050565b7f4e487b7100000000000000000000000000000000000000000000000000000000600052602260045260246000fd5b60006002820490506001821680612aad57607f821691505b602082108103612ac057612abf612a66565b5b50919050565b7f4552433732313a20617070726f76616c20746f2063757272656e74206f776e6560008201527f7200000000000000000000000000000000000000000000000000000000000000602082015250565b6000612b2260218361223e565b9150612b2d82612ac6565b604082019050919050565b60006020820190508181036000830152612b5181612b15565b9050919050565b7f4552433732313a20617070726f76652063616c6c6572206973206e6f7420746f60008201527f6b656e206f776e6572206f7220617070726f76656420666f7220616c6c000000602082015250565b6000612bb4603d8361223e565b9150612bbf82612b58565b604082019050919050565b60006020820190508181036000830152612be381612ba7565b9050919050565b7f4552433732313a2063616c6c6572206973206e6f7420746f6b656e206f776e6560008201527f72206f7220617070726f76656400000000000000000000000000000000000000602082015250565b6000612c46602d8361223e565b9150612c5182612bea565b604082019050919050565b60006020820190508181036000830152612c7581612c39565b9050919050565b7f53656c6c65722063616e6e6f7420626520627579657200000000000000000000600082015250565b6000612cb260168361223e565b9150612cbd82612c7c565b602082019050919050565b60006020820190508181036000830152612ce181612ca5565b9050919050565b7f4c697374696e67206973206e6f74206163746976650000000000000000000000600082015250565b6000612d1e60158361223e565b9150612d2982612ce8565b602082019050919050565b60006020820190508181036000830152612d4d81612d11565b9050919050565b6000606082019050612d69600083018661237a565b612d76602083018561237a565b612d836040830184612769565b949350505050565b7f546f6b656e20616c726561647920657869737473000000000000000000000000600082015250565b6000612dc160148361223e565b9150612dcc82612d8b565b602082019050919050565b60006020820190508181036000830152612df081612db4565b9050919050565b7f4f6e6c792073656c6c65722063616e2063616e63656c206c697374696e670000600082015250565b6000612e2d601e8361223e565b9150612e3882612df7565b602082019050919050565b60006020820190508181036000830152612e5c81612e20565b9050919050565b7f4552433732313a20696e76616c696420746f6b656e2049440000000000000000600082015250565b6000612e9960188361223e565b9150612ea482612e63565b602082019050919050565b60006020820190508181036000830152612ec881612e8c565b9050919050565b7f4552433732313a2061646472657373207a65726f206973206e6f74206120766160008201527f6c6964206f776e65720000000000000000000000000000000000000000000000602082015250565b6000612f2b60298361223e565b9150612f3682612ecf565b604082019050919050565b60006020820190508181036000830152612f5a81612f1e565b9050919050565b600081905092915050565b6000612f7782612233565b612f818185612f61565b9350612f9181856020860161224f565b80840191505092915050565b6000612fa98285612f6c565b9150612fb58284612f6c565b91508190509392505050565b7f4552433732313a207472616e736665722066726f6d20696e636f72726563742060008201527f6f776e6572000000000000000000000000000000000000000000000000000000602082015250565b600061301d60258361223e565b915061302882612fc1565b604082019050919050565b6000602082019050818103600083015261304c81613010565b9050919050565b7f4552433732313a207472616e7366657220746f20746865207a65726f2061646460008201527f7265737300000000000000000000000000000000000000000000000000000000602082015250565b60006130af60248361223e565b91506130ba82613053565b604082019050919050565b600060208201905081810360008301526130de816130a2565b9050919050565b60008190508160005260206000209050919050565b60006020601f8301049050919050565b600082821b905092915050565b6000600883026131477fffffffffffffffffffffffffffffffffffffffffffffffffffffffffffffffff8261310a565b613151868361310a565b95508019841693508086168417925050509392505050565b6000819050919050565b600061318e613189613184846122e5565b613169565b6122e5565b9050919050565b6000819050919050565b6131a883613173565b6131bc6131b482613195565b848454613117565b825550505050565b600090565b6131d16131c4565b6131dc81848461319f565b505050565b5b81811015613200576131f56000826131c9565b6001810190506131e2565b5050565b601f82111561324557613216816130e5565b61321f846130fa565b8101602085101561322e578190505b61324261323a856130fa565b8301826131e1565b50505b505050565b600082821c905092915050565b60006132686000198460080261324a565b1980831691505092915050565b60006132818383613257565b9150826002028217905092915050565b61329a82612233565b67ffffffffffffffff8111156132b3576132b2612572565b5b6132bd8254612a95565b6132c8828285613204565b600060209050601f8311600181146132fb57600084156132e9578287015190505b6132f38582613275565b86555061335b565b601f198416613309866130e5565b60005b828110156133315784890151825560018201915060208501945060208101905061330c565b8683101561334e578489015161334a601f891682613257565b8355505b6001600288020188555050505b505050505050565b7f4552433732313a20617070726f766520746f2063616c6c657200000000000000600082015250565b600061339960198361223e565b91506133a482613363565b602082019050919050565b600060208201905081810360008301526133c88161338c565b9050919050565b7f4552433732313a207472616e7366657220746f206e6f6e20455243373231526560008201527f63656976657220696d706c656d656e7465720000000000000000000000000000602082015250565b600061342b60328361223e565b9150613436826133cf565b604082019050919050565b6000602082019050818103600083015261345a8161341e565b9050919050565b7f4e487b7100000000000000000000000000000000000000000000000000000000600052601260045260246000fd5b600081519050919050565b600082825260208201905092915050565b60006134b782613490565b6134c1818561349b565b93506134d181856020860161224f565b6134da81612279565b840191505092915050565b60006080820190506134fa600083018761237a565b613507602083018661237a565b6135146040830185612769565b818103606083015261352681846134ac565b905095945050505050565b600081519050613540816121a4565b92915050565b60006020828403121561355c5761355b61216e565b5b600061356a84828501613531565b91505092915050565b7f4552433732313a206d696e7420746f20746865207a65726f2061646472657373600082015250565b60006135a960208361223e565b91506135b482613573565b602082019050919050565b600060208201905081810360008301526135d88161359c565b9050919050565b7f4552433732313a20746f6b656e20616c7265616479206d696e74656400000000600082015250565b6000613615601c8361223e565b9150613620826135df565b602082019050919050565b6000602082019050818103600083015261364481613608565b905091905056fea264697066735822122044f85783da40ee5b16b791ecd0f413db7f04f6a36971d73cb0353375681c8e8f64736f6c63430008130033",
  "immutableReferences": {},
  "source": "// SPDX-License-Identifier: MIT\npragma solidity ^0.8.9;\n\nimport \"@openzeppelin/contracts/token/ERC721/ERC721.sol\";\n\ncontract NFT is ERC721 {\n\tconstructor() ERC721(\"Coolest NFT\", \"NFT\") {}\n\n    struct TokenData {\n        string name;\n        string description;\n    }\n\tenum ListingStatus {\n\t\tActive,\n\t\tSold,\n\t\tCancelled\n\t}\n\n\tstruct Listing {\n\t\tListingStatus status;\n\t\taddress seller;\n\t\tuint tokenId;\n\t\tuint price;\n\t}\n\n\tevent Listed(\n\t\tuint listingId,\n\t\taddress seller,\n\t\tuint tokenId,\n\t\tuint price\n\t);\n\n\tmapping(uint => Listing) private _listings;\n\t\t\n\tmapping(uint256 => TokenData) private _tokenData;\n\n    function mint(address to,uint256 tokenId,string memory name,string memory description) public {\n\t\trequire(!_exists(tokenId), \"Token already exists\");\n        _safeMint(to, tokenId);\n        _setTokenData(tokenId, name, description);\n    }\n\n    function getTokenData(uint256 tokenId) public view returns (TokenData memory) {\n        return _tokenData[tokenId];\n    }\n\n    function _setTokenData(uint256 tokenId, string memory name, string memory description) internal {\n        _tokenData[tokenId] = TokenData(name, description);\n    }\n\n\tfunction listToken(uint tokenId, uint price, uint listingId) public {\n\t\ttransferFrom(msg.sender, address(this), tokenId);\n\n\t\tListing memory listing = Listing(\n\t\t\tListingStatus.Active,\n\t\t\tmsg.sender,\n\t\t\ttokenId,\n\t\t\tprice\n\t\t);\n\n\t\t_listings[listingId] = listing;\n\t}\n\n\tfunction getListing(uint listingId) public view returns (Listing memory) {\n\t\treturn _listings[listingId];\n\t}\n\n\tfunction buyToken(uint listingId) public payable {\n\t\tListing storage listing = _listings[listingId];\n\n\t\trequire(msg.sender != listing.seller, \"Seller cannot be buyer\");\n\t\trequire(listing.status == ListingStatus.Active, \"Listing is not active\");\n\n\t\t//require(msg.value >= listing.price, \"Insufficient payment\");\n\n\t\tlisting.status = ListingStatus.Sold;\n\t\tIERC721(address(this)).transferFrom(address(this), msg.sender, listing.tokenId);\n\t\tpayable(listing.seller).transfer(listing.price);\n\t}\n\n\tfunction cancel(uint listingId) public {\n\t\tListing storage listing = _listings[listingId];\n\n\t\trequire(msg.sender == listing.seller, \"Only seller can cancel listing\");\n\t\trequire(listing.status == ListingStatus.Active, \"Listing is not active\");\n\n\t\tlisting.status = ListingStatus.Cancelled;\n\t\n\t\tIERC721(address(this)).transferFrom(address(this), msg.sender, listing.tokenId);\n\t}\n}",
  "sourcePath": "C:\\Users\\haiwe\\Desktop\\6883_project\\contracts\\NFT.sol",
  "compiler": {
    "name": "solc",
    "version": "0.8.19+commit.7dd6d404.Emscripten.clang"
  },
  "schemaVersion": "3.4.13",
  "updatedAt": "2023-05-02T15:32:04.660Z",
  "networkType": "ethereum",
  "devdoc": {
    "events": {
      "Approval(address,address,uint256)": {
        "details": "Emitted when `owner` enables `approved` to manage the `tokenId` token."
      },
      "ApprovalForAll(address,address,bool)": {
        "details": "Emitted when `owner` enables or disables (`approved`) `operator` to manage all of its assets."
      },
      "Transfer(address,address,uint256)": {
        "details": "Emitted when `tokenId` token is transferred from `from` to `to`."
      }
    },
    "kind": "dev",
    "methods": {
      "approve(address,uint256)": {
        "details": "See {IERC721-approve}."
      },
      "balanceOf(address)": {
        "details": "See {IERC721-balanceOf}."
      },
      "getApproved(uint256)": {
        "details": "See {IERC721-getApproved}."
      },
      "isApprovedForAll(address,address)": {
        "details": "See {IERC721-isApprovedForAll}."
      },
      "name()": {
        "details": "See {IERC721Metadata-name}."
      },
      "ownerOf(uint256)": {
        "details": "See {IERC721-ownerOf}."
      },
      "safeTransferFrom(address,address,uint256)": {
        "details": "See {IERC721-safeTransferFrom}."
      },
      "safeTransferFrom(address,address,uint256,bytes)": {
        "details": "See {IERC721-safeTransferFrom}."
      },
      "setApprovalForAll(address,bool)": {
        "details": "See {IERC721-setApprovalForAll}."
      },
      "supportsInterface(bytes4)": {
        "details": "See {IERC165-supportsInterface}."
      },
      "symbol()": {
        "details": "See {IERC721Metadata-symbol}."
      },
      "tokenURI(uint256)": {
        "details": "See {IERC721Metadata-tokenURI}."
      },
      "transferFrom(address,address,uint256)": {
        "details": "See {IERC721-transferFrom}."
      }
    },
    "version": 1
  },
  "userdoc": {
    "kind": "user",
    "methods": {},
    "version": 1
  }
}